:020000040800F2
:1000000010040020D5000008E90A0008A50900082E
:1000100000000000000000000000000000000000E0
:10002000000000000000000000000000F30A0008CB
:100030000000000000000000F10A0008F50A0008B6
:10004000E7000008E7000008E7000008E7000008F4
:10005000E7000008E7000008E7000008E7000008E4
:10006000E7000008E7000008E7000008E7000008D4
:10007000E7000008E7000008E7000008E7000008C4
:10008000E7000008E700000800000000E7000008A3
:10009000E7000008E7000008E7000008E7000008A4
:1000A000E7000008E7000008E7000008E700000894
:1000B000E700000800000000E7000008044885464B
:1000C00000F090F800480047DB0B0008C046C0462F
:1000D000100400200448804704480047FEE7FEE77C
:1000E000FEE7FEE7FEE7FEE7470B0008BD0000085D
:1000F00030B50B46014600202022012409E00D46C0
:10010000D5409D4205D31D469540491B2546954047
:1001100040191546521E002DF1DC30BDF0B51FB45C
:100120000646002082B005464024019100901BE065
:10013000019922460F46304600F020F8049A059BAC
:10014000801A994110D310461946224600F039F81A
:10015000361A8F410197224601200021009F00F0AE
:1001600030F838184D4100902046641E0028DFDC2E
:10017000019B00982946324607B0F0BD10B5202AF1
:1001800004DB0846203AD040002110BD0B46D34086
:10019000D0402024A21A91400843194610BDD2B283
:1001A00001E00270401C491EFBD270470022F6E7B6
:1001B00010B513460A4604461946FFF7F0FF2046DD
:1001C00010BD10B5202A04DB0146203A91400020E2
:1001D00010BD914020239C1A0346E34019439040F0
:1001E00010BD0000064C0125064E05E0E36807CC73
:1001F0002B430C3C98471034B442F7D3FFF762FF0F
:10020000F80B0008180C0008F8B5002292E001274E
:1002100097403B407ED04C68012C05D0022C03D087
:10022000112C01D0122C10D1856854000326A64051
:10023000B543CE68A6402E43866044680D79BC4322
:10024000ED06ED0F954025434560C6685500032433
:10025000AC408F68A643AF403743A646C7604C68A2
:10026000022C01D0122C0ED1D408A4002418276A25
:10027000A4465607F40E0F26A640B7430E69A640C3
:100280003E436446266206687446A6430C79A4077A
:10029000A40FAC40344304604C68E40049D5284CBA
:1002A000A56901263543A561A469950834400094E9
:1002B000244CAD002F19BD689407240F0F26A640CB
:1002C000B5430926F606B04201D100260FE01E4EC6
:1002D000B04201D101260AE01C4EB04201D10226F3
:1002E00005E01B4EB04201D1032600E00526A640E2
:1002F0002E43BE60174D2C684E689C43F60300D514
:100300001C432C606C684E689C43B60300D51C43AC
:100310006C6000E00DE0AC684E689C43F60200D5CE
:100320001C43AC60EC684E689C43B60200D51C438D
:10033000EC60521C0B681C46D44000D067E7F8BD47
:10034000001002400000014000040048000800487E
:10035000000C004800040140002A01D08161704770
:1003600081627047014880687047000000000020EB
:100370000248816802788918816070470000002077
:1003800010B506480168102211430160002000F0FA
:1003900007F800F027F8002010BD00000020024000
:1003A00070B504460D4D7D202978C000FFF7A0FEF2
:1003B00001460B480068FFF79BFE00F0DBFA0028BF
:1003C00009D1042C07D200222146401E00F01EF85D
:1003D00000206C6070BD012070BD00000000002096
:1003E0000C00002008B50848816901221143816191
:1003F000816911400091C26901040A43C261C06968
:100400000840009008BD00000010024010B500F048
:10041000B3FB10BD70470000F8B50D4604005AD07C
:100420003A480068C007C00FA8420AD2374801689E
:1004300049084900294301600068C007C00FA8426D
:1004400049D12068324E81070CD5400704D5706829
:1004500007210902084370607068F0218843A16891
:10046000084370602078C00725D0606801280ED04E
:10047000316802280ED0890700292CDA71688908B2
:10048000890001437160FFF76DFF07460CE031689A
:100490008903F1E78901EFE7FFF764FFC11B1D48FE
:1004A000814201D90320F8BD70680C2108406168C1
:1004B00089008842F0D115480168C907C90FA942CF
:1004C0000BD9016849084900294301600068C00749
:1004D000C00FA84201D00120F8BD2078400706D502
:1004E0007068072109028843E1680843706000F0E2
:1004F00021F87168084A0906090F515CC84007498C
:1005000008600020FFF74CFF0020F8BD00200240EB
:100510000010024088130000E80B00080C000020C7
:10052000034801680122D2041143016070470000B2
:100530000010024010B514A00FC888B06C460FC45C
:1005400015A00FC80FC4184A53680C201946014063
:100550001648042916D0082914D19902090F6C46AF
:10056000645CD16A04AA0907090F525CD90305D556
:1005700000231946FFF7D2FD214601E020460C4931
:1005800000F0E2FA08B010BD0203040506070809EE
:100590000A0B0C0D0E0F10100102030405060708CC
:1005A000090A0B0C0D0E0F100010024000127A0009
:1005B00000093D0010B5044CA068000603D5FFF704
:1005C00029FF8020A07210BD00100240FEB504007B
:1005D00076D02078E44DC00753D068680007800FBC
:1005E000012807D068680007800F022809D16868D1
:1005F000C00306D52868800343D560680028E7D08B
:100600003FE06068012813D001218904002814D03C
:10061000052818D02A68881082432A6028688843F1
:1006200028606068002820D0FFF79CFE064618E08E
:100630002868012109040843F2E72868012212040E
:1006400090432860EAE72868084328602968012069
:10065000000401432960E4E7FFF784FE801B64285F
:1006600075D828688003F7D50BE0FFF77BFE0646B8
:1006700004E0FFF777FE801B6428F1D82868800328
:10068000F7D4207801268007002843DA686800073D
:10069000800F07D068680007800F022811D16868B2
:1006A000C0030ED42868800702D5E068012807D16E
:1006B0002868F82188432169C9000843286029E097
:1006C0004DE1E0680028286815D030432860FFF726
:1006D00049FE074604E0FFF745FEC01B0228BFD8CD
:1006E00028688007F7D52968F82081432069C00071
:1006F000014329600EE0400840002860FFF732FE09
:10070000074604E0FFF72EFEC01B0228A8D8286881
:100710008007F7D42078000722D5E0690028686AAE
:100720000ED030436862FFF71DFE074604E0FFF776
:1007300019FEC01B022893D8686A8007F7D50FE01E
:10074000400840006862FFF70DFE074605E09DE0A7
:10075000FFF708FEC01B02288FD8686A8007F7D40D
:10076000207804274007002860DA00200190E8691B
:10077000C00008D4E969B8060143E961E9690140AC
:1007800001200091019079480168C90511D40168E0
:10079000821511430160FFF7E5FD009005E0FFF7CA
:1007A000E1FD0099401A642870D870480068C005BF
:1007B000F5D5A06801280AD0002801D0052810D05E
:1007C000286A400840002862286AB84301E0286A85
:1007D00030432862A068002812D0FFF7C3FD0090C4
:1007E0000AE0286A38432862F1E7FFF7BBFD009969
:1007F000411A5F48814249D8286A8007F5D50DE043
:10080000FFF7B0FD009006E0FFF7ACFD0099411A3C
:10081000574881423AD8286A8007F5D401980028C1
:1008200004D0E869012109078843E8612078C006FF
:1008300035D5606901280CD0401D686B23D0384342
:100840006863686B400840006863FFF78BFD0646ED
:1008500022E0686B38436863686B30436863FFF776
:1008600081FD064604E0FFF77DFD801B02285BD872
:10087000686B8007F7D5686BF8218843A169C900C8
:10088000084368630BE0B8436863F4E74CE0FFF7A4
:1008900069FD801B022847D8686B8007F7D4206A5F
:1008A00000285ED069680907890F022942D0012714
:1008B0003F060228286805D0B8432860FFF752FD9C
:1008C000044633E0B8432860FFF74CFD064604E0D9
:1008D000FFF748FD801B022826D828688001F7D43E
:1008E000E86AE16A000900010843E862616AA06AF7
:1008F000084369683D2212049143084368602868F0
:1009000038432860FFF72EFD044604E0FFF72AFD78
:10091000001B022808D828688001F7D521E0FFF7DE
:1009200021FD001B022801D90320FEBD286880019B
:10093000F5D416E00128F8D06868E96A01221204AB
:10094000636A02409A420AD10907E26A090F91429A
:1009500005D10F2189040840A16A884201D00120F5
:10096000FEBD0020FEBD00000010024000700040EF
:1009700088130000094910B5401E884201D90120A2
:1009800010BD074C60610321081F00F0F5F800203E
:10099000A06107202061002010BD0000FFFFFF00C4
:1009A00000E000E0FEE70000F0B587B014216846E3
:1009B000FFF7FCFB474842690121C9040A43426131
:1009C00042690A4005924269C9000A43426142698C
:1009D0000A400592426949110A43426142690A404C
:1009E0000592426949000A43426140693A4E084013
:1009F000FF210590002209023046FFF7ADFC0122DD
:100A0000F0213046FFF7A8FC002207213348FFF70A
:100A1000A3FC01220920D103C006FFF79DFC30484A
:100A20000024012500900294694601950394304604
:100A3000FFF7EAFB0F2000900194694602943046CC
:100A4000FFF7E2FB032609206946C00601960095E0
:100A50000294FFF7D9FBE0200090022709200294BE
:100A60006946019703960494C006FFF7CDFB072063
:100A7000009002946946019503941848FFF7C4FB5F
:100A8000280200900920019469460294C006FFF7ED
:100A9000BBFB0F2040020090092069460197039696
:100AA00004950294C006FFF7AFFBC020009012200F
:100AB00001AA61C269460B48FFF7A6FBE803009054
:100AC00009200294694601950394C006FFF79CFB38
:100AD00007B0F0BD001002400008004800040048C4
:100AE000F0FF00000014004810B5FFF763FD10BDD3
:100AF0007047704710B5FFF73BFC10BD30B591B0A3
:100B000030216846FFF752FB00240120009001903D
:100B10000E94000409900F9400010D9402250A9090
:100B20000C9408950B946846FFF750FD07200C9035
:100B30000E9401210D950F940CA8FFF76DFCFFF7A3
:100B4000EFFC11B030BD7047F8B5040C8BB22646EF
:100B500082B25E430D0C1046370C584336048019A0
:100B60000021794116466E43370C360480197941CD
:100B700026466E438919F8BD8307FF22DB0E9A4093
:100B80008907090E9940002808DB830809489B0063
:100B90001818036893430B43036070470007000F66
:100BA0000838830804489B001818C36993430B4313
:100BB000C361704700E400E000ED00E002E008C817
:100BC000121F08C1002AFAD170477047002001E0C7
:100BD00001C1121F002AFBD17047FFF7D1FBFFF7BD
:100BE0008DFFFFF7E1FEFEE70000000000000000BF
:100BF0000102030406070809180C00080000002081
:100C000010000000BC0B0008280C00081000002099
:100C100000040000CC0B00080100000004000000EC
:080C20000000000000127A0040
:04000005080000BD32
:00000001FF
