:020000040800F2
:10000000A00400202D0100083D1900085B1700081E
:1000100000000000000000000000000000000000E0
:100020000000000000000000000000004719000868
:1000300000000000000000004519000849190008F0
:100040003F0100083F0100083F0100083F01000890
:100050003F0100083F0100083F0100083F01000880
:100060003F0100083F0100083F0100083F01000870
:100070003F0100083F0100083F0100083F01000860
:100080003F010008A5190008000000003F0100081A
:100090003F0100083F0100083F0100083F01000840
:1000A0003F0100083F0100083F0100083F01000830
:1000B0003F010008000000003F0100080448854699
:1000C00000F098FA0048004795260008C046C04650
:1000D000A004002000BF704730B50446124DA96946
:1000E000302565436B1C303B994208D3CA1A00BFC8
:1000F0000D4DA86988420ED89042F9D80BE00A4D00
:100100006D696D186D1CEA1A00BF074DA869884219
:10011000FBD99042F9D830BD10B50446002C02D06E
:10012000204600F0B5FD10BD00E000E00448804727
:1001300004480047FEE7FEE7FEE7FEE7FEE7FEE7CE
:10014000A3190008BD00000830B50B460146002089
:100150002022012409E00D46D5409D4205D31D46CD
:100160009540491B2546954040191546521E002DC5
:10017000F1DC30BD70B500242546002801DA0124E9
:100180004042002901DA01254942FFF7DDFFAC4278
:1001900000D04042002C00D0494270BDF0B51FB4E1
:1001A0000646002082B005464024019100901BE0E5
:1001B000019922460F46304600F020F8049A059B2C
:1001C000801A994110D310461946224600F039F89A
:1001D000361A8F410197224601200021009F00F02E
:1001E00030F838184D4100902046641E0028DFDCAE
:1001F000019B00982946324607B0F0BD10B5202A71
:1002000004DB0846203AD040002110BD0B46D34005
:10021000D0402024A21A91400843194610BDD2B202
:1002200001E00270401C491EFBD270470022F6E735
:1002300010B513460A4604461946FFF7F0FF20465C
:1002400010BD10B5202A04DB0146203A9140002061
:1002500010BD914020239C1A0346E340194390406F
:1002600010BD0000F0B507460846584087B0C00FE3
:10027000049048000E46590040084908BC1A8841BD
:1002800005D2384631461E4617460B4602465800F0
:10029000400810434DD0300D039040055900400DEB
:1002A000490D0590401A0290402873DA1803012185
:1002B000000B09050843019004980092002806D01D
:1002C0001146019A49420020904100910190029804
:1002D00040210A1A01990098FFF7B3FF05460C4622
:1002E0006B4607CB00F098F9C0197141039A0E0DC7
:1002F0000023D71756401A467A40164344D0049A32
:10030000002A2DD0029A012A039A15DC1205C01A80
:10031000914101263605001C7141D20F059ED2077E
:100320000093019202962A46234600F095F907B001
:10033000F0BD38463146FAE71605234A0F46B21893
:10034000C01AB74101210905001C4F4100187F4127
:10035000114618187941E20F10436D19644113E0FA
:10036000E2076D0815436408C2071443039A012687
:100370001205C01A91413605001C7141CE07400894
:1003800030434908C01851412A46234600F057F926
:10039000CDE7FFE7049801224000C117121A00239D
:1003A0008B4104983146C417381AA141EEE730B4A6
:1003B0000124E407634030BC54E730B40124E4076F
:1003C000614030BC4EE700000000E0FFF0B51FB414
:1003D00088B00B990998002448400999C00F49003A
:1003E00049080991C0070B990090490049080B91F1
:1003F00009990898A64608431CD00B990A98084307
:1004000018D0099801244000420D4800410D099878
:1004100024050003000B204309900B980003000BF8
:1004200020430B9050181C4940180022019014469C
:10043000104605E0002001460DB0F0BD032801DAAA
:10044000034600E003239C46C11A0AAE0AE05F009F
:1004500008ADED5B4F00F75B7D430027AA187C4198
:10046000491C5B1E6145F2DD410004AB5A52210478
:10047000120C0A43240C401C0828DFDB0198029070
:100480000099704601910090059B049A079906987F
:1004900000F0E2F8D0E700000DFCFFFFF0B50C46DD
:1004A0005C4085B0E40FE40703944C000026640828
:1004B00059009446490802460296224321D06246DA
:1004C0000A431ED06200570D4A000E032303550D48
:1004D000012402462C492405781B1B0B360B4018BF
:1004E00023432643614600901C46501AB44103D36F
:1004F0000098401C009002E0921800985B41002890
:1005000003DA0020014605B0F0BD002001210905F5
:100510000746864611E064461D46141BB54106D3C6
:100520006546521BB341744607430C43A646CD07AC
:1005300040084908284392185B4105460D43EAD11B
:100540001046184313D06046194650407140084386
:1005500006D06046101AB34106D20122002306E0FD
:1005600000220123DB0702E00122D243531000984E
:1005700074460105381C6141029C039D00196941C4
:1005800000F05DF8BFE70000FD0300004A0009032A
:100590000123090B1B0519430A4B10B5520D9A4252
:1005A00002DA0020014610BD064B34339A4203DCC8
:1005B0009A1AFFF723FE10BD034BD218FFF741FE36
:1005C00010BD0000FF030000CDFBFFFF10B50029A8
:1005D00004DB0124E40740428C412146002B04DB6C
:1005E0001C460123DB075242A341994200D19042AD
:1005F00010BD0000064C0125064E05E0E36807CC5F
:100600002B430C3C98471034B442F7D3FFF75AFD04
:10061000302A0008502A000810B5202A06DBCB1724
:100620000846203A1041C1170B4306E00B46134120
:10063000D0402024A21A91400843194610BD10B59D
:10064000002B08DA0024401C614192185B411A43D8
:1006500001D14008400010BDF0B51FB482B005467E
:100660000C0003D0084601F001FA02E001F0FEF9A7
:1006700020300246009021462846FFF7E2FD049B09
:10068000059A04460F4618431143084314D01846F0
:1006900010431BD0009840210A1A18460599FFF70D
:1006A000ADFD05460E46009A05990498FFF7C9FD71
:1006B000084305D0012004E02046394607B0F0BDCC
:1006C0000020C11705430E432C43374300990E9871
:1006D0006305401A7905E40A00220C43FD0A0A303A
:1006E00002D500200146E9E70105101969410C9C7B
:1006F0000D9D00196941FFF7A2FFDFE7F8B5044639
:1007000000200090206881688907890F012905D1A0
:100710000168C9072CD1C168090429D48168154A28
:10072000102611400125002915D1816829438160D7
:10073000124811490068FFF707FD00E0401E0090D5
:100740000028FBD100F072FB07460CE000F06EFBC6
:10075000C01B022807D9A06B3043A063E06B28437D
:10076000E0630120F8BD20680068C043C007EDD1F8
:100770000020F8BD1700008040420F001400002048
:1007800010B5074909688862054800F053FA00214E
:10079000C943034800F0EEF9014800F0FFF810BD2E
:1007A00018000020034910B548430349FFF7E2FC55
:1007B00080B210BDB63A0100A08601007047F8B5BE
:1007C000054604462035287D0026012808D0012052
:1007D0002875206881688907890F012908D101E0FF
:1007E0000220F8BD0168C90738D1C168090435D4B1
:1007F000A16BFF220132914302221143A163C16820
:100800008907890F0091C16889088900C160206843
:10081000816892071143816000F008FB07460EE0F3
:1008200000F004FBC01B022809D9A06B02218843F9
:1008300010210843A063002028750120F8BD20681E
:1008400080680028ECDB2068C168009A1143C16011
:10085000A06B80088000401CA06304E0A06B2021F6
:100860000843A0630126002028753046F8BD00002B
:10087000F8B50025044620340095227D012A3BD09E
:100880000123237502689668760776D43F4F4E6839
:10089000BE4254D0966A0F78BB401E439662012335
:1008A000C26A1B079A421FD0012A1DD0022A1BD000
:1008B000032A19D0042A17D0052A15D0062A13D0E6
:1008C000072A11D002688B6856697607760FB34203
:1008D0000AD05369DB08DB005361006842690B7A78
:1008E0005B075B0F1A4342610868102806D0112885
:1008F00004D0122802D045E00220F8BD244B9A68AB
:10090000102809D011280AD00120000602439A605D
:100910000868102806D035E00120C005F6E7012060
:100920008005F3E71C481B490068FFF70DFC0A210E
:10093000484300E0401E00900028FBD122E0906A6E
:100940000E78B340984390620868102803D01128AD
:1009500001D0122816D10E4A9168102807D011280C
:1009600008D001200006814391600BE005E00120E2
:10097000C005F8E701208005F5E7816B20221143CF
:1009800081630125002020752846F8BD0110000074
:100990000027014040420F00140000200068006C56
:1009A00070470000F8B500250446002805D0A06B6C
:1009B00026462036002802D007E00120F8BD00209E
:1009C000E0633075204600F0A9F8A06B1022C00645
:1009D000002870DB2068816849076CD4A16B130183
:1009E000994302231943A16381688907890F01296B
:1009F00005D10168C9070FD1C16809040CD4C168C9
:100A000018239943A3681943C1602068016963688A
:100A100089008908194301612068C1683D4B19406C
:100A2000C160207E8103607EC0030143A07E43033A
:100A30001943A36A012B02D001231B0300E000230A
:100A40001943E36819432369022B09D00023194392
:100A50003379E67E5B0019430123012E02D00AE0C0
:100A60000423F4E7002827D0A06B20263043A0639E
:100A7000E06B1843E063E0690646FF3EC23E02D0E9
:100A8000266A304301432068C6680E43C6600126CB
:100A9000E06A3607B04213D0012811D002280FD0E7
:100AA00003280DD004280BD0052809D0062807D02C
:100AB000072805D010E028E0012000040143DAE710
:100AC00020684669F608F600466120684669A78DE9
:100AD0007F077F0F3E4346612068C0680E4E30405E
:100AE000884207D10020E063A06B80088000401C92
:100AF000A06308E0A06B022188431043A063E06B71
:100B00001843E06301252846F8BDA06B1043A0639D
:100B1000F8E700001902FEFFE7FF3F8310B586B03B
:100B2000044614216846FFF781FB1049206888427B
:100B300019D10F48826941150A43826182690A40CE
:100B40000592426909020A434261406908400590E2
:100B500001200090032001900020029009206946A6
:100B6000C00600F0A7F806B010BD00000024014048
:100B700000100240F8B504464069274620370D466C
:100B800008280BD02068C068C00709D0A06B2021BE
:100B90000843A063002038750120F8BD082600E056
:100BA0000C2600F043F9009011E0681C0FD0002DD6
:100BB00005D000F03BF90099401AA84207D9A06B74
:100BC00004210843A063002038750320F8BD206885
:100BD00000683042E9D0A06B012149020843A063BC
:100BE0002068C1680C220905890F00291AD1A17E4D
:100BF000002917D10168090714D581680123490725
:100C0000002908DB416891434160A06B19028843C9
:100C10001843A06306E0A06B20210843A063E06BAB
:100C20001843E063207E002801D120680260002084
:100C3000F8BD000070B504462168002089684907A6
:100C400021D425462035297D01291CD00121297573
:100C5000617E012904D02046FFF750FD002811D104
:100C6000A16B0A4A1140FF2201321143A163002106
:100C7000E163297522681C21116021688A680423B8
:100C80001A438A6070BD022070BD0000FEF1FFFFB4
:100C900070B5044600F0CAF80546601C02D004484E
:100CA0000078241800F0C2F8401BA042FAD370BDAF
:100CB00008000020F8B5002292E0012797403B4051
:100CC0007ED04C68012C05D0022C03D0112C01D011
:100CD000122C10D1856854000326A640B543CE6877
:100CE000A6402E43866044680D79BC43ED06ED0FA7
:100CF000954025434560C66855000324AC408F6885
:100D0000A643AF403743A646C7604C68022C01D0CB
:100D1000122C0ED1D408A4002418276AA446560722
:100D2000F40E0F26A640B7430E69A6403E43644624
:100D3000266206687446A6430C79A407A40FAC404B
:100D4000344304604C68E40049D5284CA569012669
:100D50003543A561A469950834400094244CAD0046
:100D60002F19BD689407240F0F26A640B543092606
:100D7000F606B04201D100260FE01E4EB04201D16E
:100D800001260AE01C4EB04201D1022605E01B4EAE
:100D9000B04201D1032600E00526A6402E43BE60E6
:100DA000174D2C684E689C43F60300D51C432C60FD
:100DB0006C684E689C43B60300D51C436C6000E031
:100DC0000DE0AC684E689C43F60200D51C43AC6055
:100DD000EC684E689C43B60200D51C43EC60521C84
:100DE0000B681C46D44000D067E7F8BD00100240F5
:100DF000000001400004004800080048000C0048C2
:100E0000000401400069084000D001207047426999
:100E100013460B401B0491430B4383617047002A28
:100E200001D081617047816270470000014880688D
:100E30007047000008000020024881680278891885
:100E4000816070470800002010B506480168102234
:100E500011430160002000F007F800F027F800209F
:100E600010BD00000020024070B504460D4D7D20ED
:100E70002978C000FFF768F901460B480068FFF7C2
:100E800063F900F0E7FA002809D1042C07D2002208
:100E90002146401E00F02AF800206C6070BD012041
:100EA00070BD0000080000201400002008B50848AC
:100EB0008169012211438161816911400091C269F8
:100EC00001040A43C261C0690840009008BD0000E7
:100ED00000100240002805DBC106C90E0120884031
:100EE000014908607047000000E100E010B500F023
:100EF000EDFD10BD70470000F8B50D4604005AD056
:100F00003A480068C007C00FA8420AD237480168B3
:100F100049084900294301600068C007C00FA84282
:100F200049D12068324E81070CD5400704D570683E
:100F300007210902084370607068F0218843A168A6
:100F4000084370602078C00725D0606801280ED063
:100F5000316802280ED0890700292CDA71688908C7
:100F6000890001437160FFF761FF07460CE03168BB
:100F70008903F1E78901EFE7FFF758FFC11B1D481F
:100F8000814201D90320F8BD70680C2108406168D6
:100F900089008842F0D115480168C907C90FA942E4
:100FA0000BD9016849084900294301600068C0075E
:100FB000C00FA84201D00120F8BD2078400706D517
:100FC0007068072109028843E1680843706000F0F7
:100FD00021F87168084A0906090F515CC8400749A1
:100FE00008600020FFF740FF0020F8BD002002400D
:100FF00000100240881300001D2A00081400002081
:10100000034801680122D2041143016070470000C7
:101010000010024010B514A00FC888B06C460FC471
:1010200015A00FC80FC4184A53680C201946014078
:101030001648042916D0082914D19902090F6C46C4
:10104000645CD16A04AA0907090F525CD90305D56B
:1010500000231946FFF7A2F8214601E020460C497B
:1010600000F01BFD08B010BD0203040506070809C7
:101070000A0B0C0D0E0F10100102030405060708E1
:10108000090A0B0C0D0E0F100010024000127A001E
:1010900000093D0010B5044CA068000603D5FFF719
:1010A00029FF8020A07210BD00100240FEB5040090
:1010B00076D02078E44DC00753D068680007800FD1
:1010C000012807D068680007800F022809D16868E6
:1010D000C00306D52868800343D560680028E7D0A0
:1010E0003FE06068012813D001218904002814D052
:1010F000052818D02A68881082432A602868884307
:1011000028606068002820D0FFF790FE064618E0AF
:101110002868012109040843F2E728680122120423
:1011200090432860EAE7286808432860296801207E
:10113000000401432960E4E7FFF778FE801B642880
:1011400075D828688003F7D50BE0FFF76FFE0646D9
:1011500004E0FFF76BFE801B6428F1D82868800349
:10116000F7D4207801268007002843DA6868000752
:10117000800F07D068680007800F022811D16868C7
:10118000C0030ED42868800702D5E068012807D183
:101190002868F82188432169C9000843286029E0AC
:1011A0004DE1E0680028286815D030432860FFF73B
:1011B0003DFE074604E0FFF739FEC01B0228BFD8FA
:1011C00028688007F7D52968F82081432069C00086
:1011D000014329600EE0400840002860FFF726FE2A
:1011E000074604E0FFF722FEC01B0228A8D82868A3
:1011F0008007F7D42078000722D5E0690028686AC4
:101200000ED030436862FFF711FE074604E0FFF797
:101210000DFEC01B022893D8686A8007F7D50FE03F
:10122000400840006862FFF701FE074605E09DE0C8
:10123000FFF7FCFDC01B02288FD8686A8007F7D42F
:10124000207804274007002860DA00200190E86930
:10125000C00008D4E969B8060143E961E9690140C1
:1012600001200091019079480168C90511D40168F5
:10127000821511430160FFF7D9FD009005E0FFF7EB
:10128000D5FD0099401A642870D870480068C005E0
:10129000F5D5A06801280AD0002801D0052810D073
:1012A000286A400840002862286AB84301E0286A9A
:1012B00030432862A068002812D0FFF7B7FD0090E5
:1012C0000AE0286A38432862F1E7FFF7AFFD00998A
:1012D000411A5F48814249D8286A8007F5D50DE058
:1012E000FFF7A4FD009006E0FFF7A0FD0099411A6A
:1012F000574881423AD8286A8007F5D401980028D7
:1013000004D0E869012109078843E8612078C00614
:1013100035D5606901280CD0401D686B23D0384357
:101320006863686B400840006863FFF77FFD06460E
:1013300022E0686B38436863686B30436863FFF78B
:1013400075FD064604E0FFF771FD801B02285BD89F
:10135000686B8007F7D5686BF8218843A169C900DD
:10136000084368630BE0B8436863F4E74CE0FFF7B9
:101370005DFD801B022847D8686B8007F7D4206A80
:1013800000285ED069680907890F022942D0012729
:101390003F060228286805D0B8432860FFF746FDBD
:1013A000044633E0B8432860FFF740FD064604E0FA
:1013B000FFF73CFD801B022826D828688001F7D45F
:1013C000E86AE16A000900010843E862616AA06A0C
:1013D000084369683D221204914308436860286805
:1013E00038432860FFF722FD044604E0FFF71EFDA6
:1013F000001B022808D828688001F7D521E0FFF7F4
:1014000015FD001B022801D90320FEBD28688001BC
:10141000F5D416E00128F8D06868E96A01221204C0
:10142000636A02409A420AD10907E26A090F9142AF
:1014300005D10F2189040840A16A884201D001200A
:10144000FEBD0020FEBD0000001002400070004004
:1014500088130000094910B5401E884201D90120B7
:1014600010BD074C60610321081F00F02FFB002016
:10147000A06107202061002010BD0000FFFFFF00D9
:1014800000E000E070477047F0B502462032137F5D
:10149000012B21D0012616770223537703685D685C
:1014A0009C687027BD430F682F435F6000680B4B3B
:1014B000984208D0B307984205D0094B984202D011
:1014C000084B984204D1802349689C4321438160A2
:1014D000567700201077F0BD0220F0BD002C0140AF
:1014E000000400400040014070B5040005D02546CE
:1014F0002035687F002802D006E0012070BD002062
:101500002877204600F014F802206877211D206813
:1015100000F050FA01224034A271AA77EA772270D3
:101520006270A270E270227162716A77002070BDF1
:1015300008B50068094988420FD10948C2691021DD
:101540000A43C261C0690022084000901146112080
:10155000FFF7CCFC1120FFF7BDFC08BD00100040D8
:1015600000100240014620314A7F012A01D00120AB
:10157000704702224A770168CB6801221343CB608F
:1015800000680B49884208D09107884205D0094974
:10159000884202D00849884204D181684907490F2E
:1015A000062902D001681143016000207047000045
:1015B000002C01400004004000400140704770B51D
:1015C0000446006801690025C9438907002915DB25
:1015D000C168C943890711D4E91E01610120207740
:1015E000206880698007204602D0FFF7E7FF04E00B
:1015F00000F096F8204600F094F8257720680169FD
:10160000C943490717D4C168C943490713D4042102
:10161000C943016102202077206880698005800F1E
:10162000204602D0FFF7CAFF04E000F079F8204618
:1016300000F077F8257720680169C943090716D4B7
:10164000C168C943090712D40821C94301610420B4
:1016500020772068C0698007204602D0FFF7AEFFE0
:1016600004E000F05DF8204600F05BF82577206884
:101670000169C943C90617D4C168C943C90613D44F
:101680001021C9430161082020772068C0698005C6
:10169000800F204602D0FFF791FF04E000F040F8F1
:1016A000204600F03EF8257720680169C943C90744
:1016B00008D1C168C943C90704D1891E0161204608
:1016C00000F030F820680169C943090609D4C168EF
:1016D000C943090605D48021C94301612046FFF7AB
:1016E000D1FE20680169C943490609D4C168C943CC
:1016F000490605D44021C9430161204600F02CF879
:1017000020680169C943890609D4C168C9438906AB
:1017100005D42021C94301612046FFF7B4FE70BD06
:101720007047704710B510210948FFF770FB094852
:1017300002210278002A03D00A2C00D2417010BD89
:101740004B22D2009442FAD301220270F6E7000045
:1017500000080048020000207047FEE73EB5002464
:101760001649174800940194029412C004600422A0
:101770004460C26001218160047444748474C47440
:10178000FF22C23284614261024618321471016242
:101790000838FFF707F9002801D0FFF70FF80120FC
:1017A0000003019000040290009469460448FFF78A
:1017B0005FF8002801D0FFF701F83EBD002401408A
:1017C00018000020F0B587B014216846FEF72EFD02
:1017D000434842690121C9040A43426142690A40FF
:1017E00005924269C9000A43426142690A40059272
:1017F000426949110A43426142690A4005924269BD
:1018000049000A4342614069364E0840FF21059075
:10181000002209023046FFF702FB0122F021304688
:10182000FFF7FDFA002207212F48FFF7F8FA0122FF
:101830000920D103C006FFF7F2FA2C480024012545
:10184000009002946946019503943046FFF732FAFE
:101850000F2000900194694602943046FFF72AFA5F
:10186000E020009002270326092002946946019790
:1018700003960494C006FFF71DFA07200090029417
:101880006946019503941848FFF714FA280200905E
:101890000920019469460294C006FFF70BFA0F2055
:1018A000400200900920694601970396049502942E
:1018B000C006FFF7FFF9C0200090122001AA61C204
:1018C00069460B48FFF7F6F9E803009009200294F7
:1018D000694601950394C006FFF7ECF907B0F0BD27
:1018E000001002400008004800040048F0FF00001B
:1018F000001400481CB500240E4800940C490194C3
:1019000001602F21846041600B498461C160FFF751
:10191000EBFD002801D0FEF751FF00946946054811
:101920000194FFF7B1FD002801D0FEF747FF1CBD71
:1019300000100040580000208713000010B5FFF78A
:10194000A9FB10BD7047704710B5FFF775FA10BDC1
:1019500030B591B030216846FEF768FC00241120B4
:101960000F940090012001900590102006900E9495
:101970000003099000010D9402250A900C9408952B
:101980000B946846FFF792FB07200C900E94012100
:101990000D950F940CA8FFF7AFFAFFF731FB11B0CC
:1019A00030BD704710B50248FFF709FE10BD0000BA
:1019B00058000020F0B502681D4B0124A4071D4DFE
:1019C000984203D0A04201D0A84203D17026B2436E
:1019D0004E683243184E194F98420DD0A0420BD09A
:1019E000A84209D0164CA04206D0B04204D0B8425A
:1019F00002D0144CA04204D103242402A243CC6898
:101A000022438024A2434C69224302608A68C26256
:101A10000A688262984206D0B04204D0B84202D02E
:101A2000084A904201D10969016301214161F0BD79
:101A3000002C0140000400400040014000440140EF
:101A4000002000400048014037B514460846064BC8
:101A50006A46214600F026F904466946002000F057
:101A6000BFFC20463EBD0000E12300082021020CFF
:101A700001D010211046020A01D01046083902098F
:101A800001D01046091F820801D01046891E420865
:101A900001D0881E7047081A7047F8B5040C8BB245
:101AA000264682B25E430D0C1046370C584336046E
:101AB00080190021794116466E43370C360480198F
:101AC000794126466E438919F8BD00008307FF223D
:101AD000DB0E9A408907090E9940002808DB83082D
:101AE00009489B001818036893430B430360704731
:101AF0000007000F0838830804489B001818C369C2
:101B000093430B43C361704700E400E000ED00E045
:101B100002E008C8121F08C1002AFAD170477047B6
:101B2000002001E001C1121F002AFBD17047000014
:101B3000F0B51FB486B00998089A030D002102433E
:101B400014D05148514A18185043051411980128CF
:101B500010981AD0281A401C00264D4F4D49009667
:101B600001910490002812DA444211E011980124F6
:101B700049A3012801D11098C1430698119A8460A5
:101B80000360C26041600BB0F0BD4042E4E7044630
:101B9000210500203F4A001C51410391029012E0B0
:101BA000E00707D032463B4601990098FEF70EFC4D
:101BB0000191009032463B4610461946FEF706FC5E
:101BC00006460F466410002CEAD10498039B0028B7
:101BD000029A0999089806DAFEF7F8FB019B009A29
:101BE000FEF7F4FB05E0FEF759FC019B009AFEF7B7
:101BF00055FC04460E460022284BFEF7E7FC03D8AE
:101C00000020C043014607E00022254B2046314614
:101C1000FEF728FBFEF7BAFC102409E0002C0ADBD3
:101C20000A220023FEF7BAFA079B30321A55641EC7
:101C300002460A43F2D11122641C079B121B1C1995
:101C4000119B012B03D0012308430ED10AE0084366
:101C500004D0112010900020119077E71098151AE9
:101C60006D1E0BE01098824202DD00236D1C03E024
:101C7000824201DA00236D1E002BEED006981199E6
:101C80008260C16030C07EE701FCFFFF104D0000A4
:101C9000000014400000F03F300000000000F0435E
:101CA0000000E03FFFB597B0064600251BE225285F
:101CB00076D100242746F749049400E00443761CBB
:101CC00032780120203A90400842F7D130782A2813
:101CD0000ED00222307801463039092916D80499ED
:101CE0000A235943303940181443761C0490F1E715
:101CF000189802C804911890002904DA01204003C2
:101D000004434842049002200443761C30782E2875
:101D100014D1042004437078761C2A2809D118981D
:101D2000761C80C8189009E00A214F43303FC7193C
:101D3000761C3078014630390929F5D930786C287D
:101D400010D006DC4C281AD068280ED06A2817D18B
:101D500004E0742813D07A2812D110E00120400545
:101D600004430CE00121090501E0032109050C43AE
:101D70007178814203D1012000052418761C761C5D
:101D8000307866280BD013DC58287DD009DC002879
:101D90007BD04528F6D04628F4D047281AD1A9E1AF
:101DA00018E0632835D0642870D0652812D1A1E1ED
:101DB00070286CD008DC6728F1D069287DD06E28A7
:101DC0000DD06F2806D1BCE073282ED0752873D0B3
:101DD000782859D01A9A199990476D1C82E16002AF
:101DE000400F022809D003280DD004281898016854
:101DF0000DD00D60001D189074E11898EA17016865
:101E00000D604A60F6E7189801680D80F2E70D70E2
:101E1000F0E718986A4601781172001D18900020AA
:101E2000507202A80090012005E0189802C818908E
:101E300000200091C04361070ED5002101E0019907
:101E4000491C0191B94213DA8142F8DB019A0099E9
:101E5000895C0029F3D10BE0002101E00199491CC4
:101E600001918142FADB019A0099895C0029F5D140
:101E7000019904981A9B471A21463846199A00F08E
:101E800099FA4019019903E051E030E115E050E082
:101E9000451807E0009800990078491C00911A9AAB
:101EA000199990470198401E0190401CF2D121469B
:101EB00038461A9B199A12E137E00A200021009057
:101EC00001916002410F022907D0189A01CA1892A5
:101ED000C2179446032908D00AE01898C01DC1080B
:101EE000C90005C91891944607E000B2C21794468C
:101EF000042902D140B2C1178C46002261469445A4
:101F000006DA0A460021404291418C462D2102E02A
:101F1000210504D52B216A461173012103E0E10755
:101F200001D02021F7E7029156E00A200AE01020B4
:101F300008E01020009000210420044301910827AC
:101F400003E008200021019100906002410F022966
:101F500007D0189A01CA189200229446032908D083
:101F600008E01898C01DC108C90005C91891944619
:101F700003E080B2042900D1C0B200210291210700
:101F80002AD531780D91702906D0009A1021019B35
:101F90004A401A4305D00EE040216A4611730121E0
:101FA00008E06146014306D030216A4611730D995D
:101FB000517302210291009A0821019B4A401A4361
:101FC0000AD16146014301D1610705D530216A4636
:101FD000117301217F1E02913178582904D02EA15E
:101FE0000E910DA90D910DE030A1F9E76146019B1D
:101FF000009AFEF7D3F80E9B8C469B5C0D9A521EFE
:102000000D92137061460143F0D10D9805A9081A8D
:1020100020300190600703D501200004844300E0D4
:1020200001270198874201DD381A00E0002001995C
:1020300000904118029809180498401A0490E0038F
:1020400006D421461A9B199A049800F0B3F9451951
:10205000002706E003A81A9AC05D199990476D1CE5
:102060007F1C02988742F5DBE0030CD521461A9BC2
:10207000199A049800F09EF9451904E01A9A302044
:10208000199990476D1C0099481E00900029F5DCB5
:102090001FE0000009280100303132333435363773
:1020A00038396162636465660000000030313233A4
:1020B0003435363738394142434445460000000044
:1020C0000D980D990078491C0D911A9A199990470D
:1020D0006D1C0199481E01900029F1DC4DE100F0D2
:1020E00059F94519761C3078002800D0DFE52846DC
:1020F0001BB0F0BD600700D406271898C01DC108AA
:10210000C90048680A680831C30FDB071891190035
:1021100001D09CA108E0210501D59BA104E0E107C5
:1021200001D09AA100E09AA14300109130785B0899
:1021300065280CD006DC452809D046281DD0472844
:1021400041D141E0662818D067283CD13CE000210D
:10215000112F01DB112000E0781C0191009008A9EB
:1021600011A8FFF7E5FC139905910021119A15922A
:102170007F1C12980197009150E00120C007039046
:102180000120019008A9009711A8FFF7D1FC139A2C
:10219000149905920022119B009212981593059AAA
:1021A0000192002901D0104602E0791C40180190EC
:1021B000381A01D5019804E04042401E0090781C76
:1021C0000190C01B029043E0012F00DA012700219B
:1021D000112F01DD112000E038460191009008A97F
:1021E00011A8FFF7A5FC13990591119A00211298E7
:1021F00015920091019721070CD40599B94201DB92
:10220000019900E00191012904DD159A491E515CF4
:10221000302906D0B84201DA011D05DA0121029108
:1022200015E00199491EEDE7002805DC00994118E9
:1022300000910199091A03E0019A411C914200DDC5
:1022400001910099401A401C02900120C0070390A0
:10225000200706D402990198814202DB0020C04386
:10226000029000206946C87707AF01210398033721
:10227000C907884224D0022011902B201290039885
:1022800000280CDA404203902D20129007E00A212A
:102290000398FDF759FF30317F1E03903970119973
:1022A000481E11900029F2DC03980028EFD1791E16
:1022B000129808703078202108404530BF1E3870D1
:1022C00006A8C01BC01D039010980078002800D0FD
:1022D0000120019941180298C0170918039809189C
:1022E0000498401A401E0490E00306D421461A9B2D
:1022F000199A049800F05EF84519109800780028A3
:1023000003D01A9A199990476D1CE00324D52146F1
:102310001A9B199A049800F04DF845191CE0009892
:10232000002807DB00990598884203DD1598405C7A
:10233000199901E0199930201A9A904700986D1C5C
:10234000401C00900298401E0290002804D11A9A66
:102350002E20199990476D1C0199481E0190002963
:10236000DDDC05E038781A9A7F1C199990476D1CBE
:102370000399481E03900029F4DC21461A9B199A00
:102380000498ACE62D0000002B00000020000000A7
:1023900000000000F8B5044600251E4617468804D4
:1023A00004D405E039462020B0476D1C641EF9D5E1
:1023B0002846F8BDFFB50446002581B01E46C80377
:1023C00001D5302700E02027880404D505E03846F1
:1023D0000399B0476D1C641EF9D5284605B0F0BDC1
:1023E0000A68531C0B6010707047000001200249FE
:1023F000C00388617047000000080048F8B5184D18
:102400002868FF2109048843286001208003A8620E
:102410004010A861FDF75EFE01263603AE61FDF7B0
:1024200059FE104F3878012802D128690005C40FE1
:10243000AE62FDF74FFEAE61FDF74CFE3878002826
:1024400002D128690005C40FAE622868552109042D
:1024500008432860012C01D00020F8BD0120F8BD00
:10246000000800480000002010B5054A515C08181B
:10247000401EC1B280200143002000F0D7F810BDFB
:102480001A2A0008F8B5574842690121C9040A43CD
:10249000426142690A400092426949000A4342612E
:1024A0004069514C0840009020683026B0432060BD
:1024B000E068B0432030E0600A20FDF70DFE20699F
:1024C0004A4D400701D5012000E000202870E06857
:1024D000B043E0602068B043103020604448016899
:1024E000444A89B2891801600121090381624900C7
:1024F0008162490081622878012805D10426A662FC
:10250000C820FDF7E9FDA6613220FDF705FE287819
:1025100000283ED001283BD1032000F0A3F8022080
:10252000FDF7FAFD032000F09DF81E20FDF7D4FD15
:10253000032000F097F81E20FDF7CEFD022000F0EA
:1025400091F81E20FDF7C8FD022000F08BF808204E
:1025500000F088F81E20FDF7BFFD102000F082F883
:10256000002000F07FF81E20FDF7B6FD002000F0EF
:1025700079F80C2000F076F81E20FDF7ADFD002064
:1025800000F070F8062000F06DF81E20FDF7A4FDA5
:10259000F8BD022000F066F8082000F063F8022081
:1025A00000F060F8082000F05DF82820FDF794FDA9
:1025B000002000F057F80C2000F054F82820FDF718
:1025C0008BFD002000F04EF8012000F04BF80220B7
:1025D000FDF7A2FD002000F045F8062000F042F8CB
:1025E000F8BD000000100240000C00480000002070
:1025F000000800480000555510B5044602E000F000
:1026000005F8641C20780028F9D110BD10B50A28FF
:1026100006D00C2804D00146012000F007F810BDB8
:1026200002210120FFF720FF10BD000070B50C460D
:102630000546FFF7E3FE0028FBD101218903084886
:10264000002D01D0816100E0816201214903816296
:10265000200900F007F82007000F00F003F870BD14
:102660000008004870B5094C6169094A89B21140F7
:102670000002084360610220FDF72EFD01252D03B5
:10268000A5610220FDF728FDA56270BD0008004885
:10269000FFF00000002588B0079506952C4601261E
:1026A00004950295FEF7D0FBFFF752F9FFF78AF881
:1026B000FFF754F8FFF71EF9BA48FEF753FF002F53
:1026C0000AD00298FF21401CF5310290884205DDB6
:1026D000B5480421417001E000200290B2484078E2
:1026E00001282AD002284ED00328E8D00428E6D1B9
:1026F000FFF7C8FE00200290ACA000F07FF9022195
:102700000120FFF7B1FE002F03D0A7484188491FE1
:1027100041800398002803D0A3484188491D418087
:1027200002210120FFF7A0FE9F484188A3A000F0EE
:1027300065F902980028E6D0C1E701221021A048DF
:10274000FEF76DFB012220219D48FEF768FB012268
:1027500040219B48FEF763FB012280219848FEF749
:102760005EFB9848FEF72BF8FFF78CFE96A000F072
:1027700045F902210120FFF777FE98A000F03EF90D
:10278000FFF734FE9BE70020FDF7FAFF0190FEF70C
:1027900009F8009001218A48FEF734FB0746022120
:1027A0008748FEF72FFB059004218548FEF72AFB9A
:1027B000039006990598884203D0002901D1761E1E
:1027C000F6B204990398884206D0002904D1761CF9
:1027D000F6B2042E00D90426012E06D0022E1DD0FA
:1027E000032E39D0042E7DD159E0AF427AD0002D8E
:1027F000F9D1641CE4B2022C75D00022102170487B
:10280000FEF70DFB77A0009A019900F0F7F802217E
:102810000120FFF729FE69A007996AE0AF426AD05C
:10282000002D68D1641CE4B2022C7FD0002210215C
:102830006348FEF7F4FA002220216148FEF7EFFA20
:1028400068A0009A019900F0D9F802210120FFF751
:102850000BFE68A007994CE0AF424CD0002D4AD146
:10286000641CE4B2022C61D0002210215448FEF70F
:10287000D6FA002220215248FEF7D1FA0022402148
:102880004F48FEF7CCFA57A0009A019900F0B6F82D
:1028900002210120FFF7E8FD55A0079929E0AF428A
:1028A00029D0002D27D1641CE4B2022C3ED0002296
:1028B00010214348FEF7B3FA002220214048FEF7DA
:1028C000AEFA002240213E48FEF7A9FA00228021FC
:1028D0003B48FEF7A4FA43A0009A019900F08EF855
:1028E000022101E007E021E00120FFF7BDFD42A049
:1028F000079900F083F8AF4200D1E0E6002DFCD14B
:10290000641CE4B2022C2FD0002210212C48FEF7C8
:1029100086FA34A0009A019900F070F80221012093
:10292000FFF7A2FD25A000F069F8C8E6244C0122BB
:1029300010212046FEF773FA012220212046FEF7DF
:102940006EFA012240212046FEF769FA0122802119
:102950002046FEF764FA02210120FFF785FD1EA044
:1029600000F04CF80024C6E7154C01221021204647
:10297000FEF755FA012220212046FEF750FA0122E7
:1029800040212046FEF74BFA012280212046FEF727
:1029900046FA02210120FFF767FD0FA000F02EF894
:1029A00000248CE658000020020000205231312023
:1029B0006175206D6178696D756D0000256400009A
:1029C00000080048180000205450372041644C6330
:1029D00064203C323032353E000000004B4752202C
:1029E000484D5400414930203A20253464202F209E
:1029F0002534640025336400253564000FB400B528
:102A000087B009AA68460899FFF71EF86846FFF7DD
:102A1000F3FD07B008BC04B01847000040000000F8
:102A2000000000000001020304060708090000007E
:102A3000502A00080000002018000000101B0008A9
:102A4000682A00081800002088040000201B0008E5
:102A500000000000E40C0000010000000400000081
:082A60000000000000127A00E2
:04000005080000BD32
:00000001FF
