:020000040800F2
:10000000480400202D010008D1100008AD0F0008A1
:1000100000000000000000000000000000000000E0
:10002000000000000000000000000000DB100008DD
:100030000000000000000000D9100008DD100008DA
:100040003F0100083F0100083F0100083F01000890
:100050003F0100083F0100083F0100083F01000880
:100060003F0100083F0100083F0100083F01000870
:100070003F0100083F0100083F0100083F01000860
:100080003F0100083F010008000000003F01000898
:100090003F0100083F0100083F0100083F01000840
:1000A0003F0100083F0100083F0100083F01000830
:1000B0003F010008000000003F0100080448854699
:1000C00000F098FA00480047CD1E0008C046C04620
:1000D0004804002000BF704730B50446124DA9699E
:1000E000302565436B1C303B994208D3CA1A00BFC8
:1000F0000D4DA86988420ED89042F9D80BE00A4D00
:100100006D696D186D1CEA1A00BF074DA869884219
:10011000FBD99042F9D830BD10B50446002C02D06E
:10012000204600F05DFB10BD00E000E00448804781
:1001300004480047FEE7FEE7FEE7FEE7FEE7FEE7CE
:100140002F110008BD00000830B50B460146002005
:100150002022012409E00D46D5409D4205D31D46CD
:100160009540491B2546954040191546521E002DC5
:10017000F1DC30BD70B500242546002801DA0124E9
:100180004042002901DA01254942FFF7DDFFAC4278
:1001900000D04042002C00D0494270BDF0B51FB4E1
:1001A0000646002082B005464024019100901BE0E5
:1001B000019922460F46304600F020F8049A059B2C
:1001C000801A994110D310461946224600F039F89A
:1001D000361A8F410197224601200021009F00F02E
:1001E00030F838184D4100902046641E0028DFDCAE
:1001F000019B00982946324607B0F0BD10B5202A71
:1002000004DB0846203AD040002110BD0B46D34005
:10021000D0402024A21A91400843194610BDD2B202
:1002200001E00270401C491EFBD270470022F6E735
:1002300010B513460A4604461946FFF7F0FF20465C
:1002400010BD10B5202A04DB0146203A9140002061
:1002500010BD914020239C1A0346E340194390406F
:1002600010BD0000F0B507460846584087B0C00FE3
:10027000049048000E46590040084908BC1A8841BD
:1002800005D2384631461E4617460B4602465800F0
:10029000400810434DD0300D039040055900400DEB
:1002A000490D0590401A0290402873DA1803012185
:1002B000000B09050843019004980092002806D01D
:1002C0001146019A49420020904100910190029804
:1002D00040210A1A01990098FFF7B3FF05460C4622
:1002E0006B4607CB00F098F9C0197141039A0E0DC7
:1002F0000023D71756401A467A40164344D0049A32
:10030000002A2DD0029A012A039A15DC1205C01A80
:10031000914101263605001C7141D20F059ED2077E
:100320000093019202962A46234600F095F907B001
:10033000F0BD38463146FAE71605234A0F46B21893
:10034000C01AB74101210905001C4F4100187F4127
:10035000114618187941E20F10436D19644113E0FA
:10036000E2076D0815436408C2071443039A012687
:100370001205C01A91413605001C7141CE07400894
:1003800030434908C01851412A46234600F057F926
:10039000CDE7FFE7049801224000C117121A00239D
:1003A0008B4104983146C417381AA141EEE730B4A6
:1003B0000124E407634030BC54E730B40124E4076F
:1003C000614030BC4EE700000000E0FFF0B51FB414
:1003D00088B00B990998002448400999C00F49003A
:1003E00049080991C0070B990090490049080B91F1
:1003F00009990898A64608431CD00B990A98084307
:1004000018D0099801244000420D4800410D099878
:1004100024050003000B204309900B980003000BF8
:1004200020430B9050181C4940180022019014469C
:10043000104605E0002001460DB0F0BD032801DAAA
:10044000034600E003239C46C11A0AAE0AE05F009F
:1004500008ADED5B4F00F75B7D430027AA187C4198
:10046000491C5B1E6145F2DD410004AB5A52210478
:10047000120C0A43240C401C0828DFDB0198029070
:100480000099704601910090059B049A079906987F
:1004900000F0E2F8D0E700000DFCFFFFF0B50C46DD
:1004A0005C4085B0E40FE40703944C000026640828
:1004B00059009446490802460296224321D06246DA
:1004C0000A431ED06200570D4A000E032303550D48
:1004D000012402462C492405781B1B0B360B4018BF
:1004E00023432643614600901C46501AB44103D36F
:1004F0000098401C009002E0921800985B41002890
:1005000003DA0020014605B0F0BD002001210905F5
:100510000746864611E064461D46141BB54106D3C6
:100520006546521BB341744607430C43A646CD07AC
:1005300040084908284392185B4105460D43EAD11B
:100540001046184313D06046194650407140084386
:1005500006D06046101AB34106D20122002306E0FD
:1005600000220123DB0702E00122D243531000984E
:1005700074460105381C6141029C039D00196941C4
:1005800000F05DF8BFE70000FD0300004A0009032A
:100590000123090B1B0519430A4B10B5520D9A4252
:1005A00002DA0020014610BD064B34339A4203DCC8
:1005B0009A1AFFF723FE10BD034BD218FFF741FE36
:1005C00010BD0000FF030000CDFBFFFF10B50029A8
:1005D00004DB0124E40740428C412146002B04DB6C
:1005E0001C460123DB075242A341994200D19042AD
:1005F00010BD0000064C0125064E05E0E36807CC5F
:100600002B430C3C98471034B442F7D3FFF75AFD04
:10061000782100089821000810B5202A06DBCB17A6
:100620000846203A1041C1170B4306E00B46134120
:10063000D0402024A21A91400843194610BD10B59D
:10064000002B08DA0024401C614192185B411A43D8
:1006500001D14008400010BDF0B51FB482B005467E
:100660000C0003D0084600F075FD02E000F072FDBA
:1006700020300246009021462846FFF7E2FD049B09
:10068000059A04460F4618431143084314D01846F0
:1006900010431BD0009840210A1A18460599FFF70D
:1006A000ADFD05460E46009A05990498FFF7C9FD71
:1006B000084305D0012004E02046394607B0F0BDCC
:1006C0000020C11705430E432C43374300990E9871
:1006D0006305401A7905E40A00220C43FD0A0A303A
:1006E00002D500200146E9E70105101969410C9C7B
:1006F0000D9D00196941FFF7A2FFDFE7F8B5224D14
:100700000446A868E8602869204F0E466861042105
:10071000384600F01FF9A8600821384600F01AF9A1
:1007200028617D231927EA68A968DB007F019142CF
:1007300012D0002910D1032E0EDB00280CD0052E7C
:1007400003D0C82C07DC3C4606E0642C01DC1C46C8
:1007500002E0643C00E0323C6A69904212D000281A
:1007600010D1032E0EDB00290CD0052E03D0BC4285
:1007700007DBC82406E09C4201DB642402E0643409
:1007800000E032342046F8BD040000200008004894
:1007900070B5114E04460121304600F0DBF80546E5
:1007A0000221304600F0D6F80C4A002D07D111681E
:1007B000012904D12168012901DD491E2160002899
:1007C00007D15168012904D12168052901DA491CA2
:1007D00021601560506070BD0008004804000020D2
:1007E00070B5044600F0C2F80546601C02D004480B
:1007F0000078241800F0BAF8401BA042FAD370BD6C
:1008000034000020F8B5002292E0012797403B40D9
:100810007ED04C68012C05D0022C03D0112C01D0C5
:10082000122C10D1856854000326A640B543CE682B
:10083000A6402E43866044680D79BC43ED06ED0F5B
:10084000954025434560C66855000324AC408F6839
:10085000A643AF403743A646C7604C68022C01D080
:10086000122C0ED1D408A4002418276AA4465607D7
:10087000F40E0F26A640B7430E69A6403E436446D9
:10088000266206687446A6430C79A407A40FAC4000
:10089000344304604C68E40049D5284CA56901261E
:1008A0003543A561A469950834400094244CAD00FB
:1008B0002F19BD689407240F0F26A640B5430926BB
:1008C000F606B04201D100260FE01E4EB04201D123
:1008D00001260AE01C4EB04201D1022605E01B4E63
:1008E000B04201D1032600E00526A6402E43BE609B
:1008F000174D2C684E689C43F60300D51C432C60B2
:100900006C684E689C43B60300D51C436C6000E0E5
:100910000DE0AC684E689C43F60200D51C43AC6009
:10092000EC684E689C43B60200D51C43EC60521C38
:100930000B681C46D44000D067E7F8BD00100240A9
:10094000000001400004004800080048000C004876
:10095000000401400069084000D001207047002ACF
:1009600001D0816170478162704700000148806852
:10097000704700003400002002488168027889181E
:10098000816070473400002010B5064801681022CD
:1009900011430160002000F007F800F027F8002064
:1009A00010BD00000020024070B504460D4D7D20B2
:1009B0002978C000FFF7C8FB01460B480068FFF725
:1009C000C3FB00F0DBFA002809D1042C07D2002277
:1009D0002146401E00F01EF800206C6070BD012012
:1009E00070BD0000340000204000002008B5084819
:1009F0008169012211438161816911400091C269BD
:100A000001040A43C261C0690840009008BD0000AB
:100A10000010024010B500F0D9FB10BD7047000077
:100A2000F8B50D4604005AD03A480068C007C00F18
:100A3000A8420AD2374801684908490029430160A1
:100A40000068C007C00FA84249D12068324E810714
:100A50000CD5400704D5706807210902084370606F
:100A60007068F0218843A168084370602078C0074F
:100A700025D0606801280ED0316802280ED0890781
:100A800000292CDA71688908890001437160FFF739
:100A90006DFF07460CE031688903F1E78901EFE754
:100AA000FFF764FFC11B1D48814201D90320F8BD37
:100AB00070680C210840616889008842F0D11548AF
:100AC0000168C907C90FA9420BD901684908490043
:100AD000294301600068C007C00FA84201D001206F
:100AE000F8BD2078400706D57068072109028843C1
:100AF000E1680843706000F021F87168084A09064F
:100B0000090F515CC840074908600020FFF74CFFFF
:100B10000020F8BD002002400010024088130000B1
:100B20006521000840000020034801680122D2042A
:100B300011430160704700000010024010B514A07E
:100B40000FC888B06C460FC415A00FC80FC4184A50
:100B500053680C20194601401648042916D008296C
:100B600014D19902090F6C46645CD16A04AA090782
:100B7000090F525CD90305D500231946FFF70EFB78
:100B8000214601E020460C4900F0FBFA08B010BDF8
:100B900002030405060708090A0B0C0D0E0F1010BE
:100BA0000102030405060708090A0B0C0D0E0F10BD
:100BB0000010024000127A0000093D0010B5044CFC
:100BC000A068000603D5FFF729FF8020A07210BDA2
:100BD00000100240FEB5040076D02078E44DC00736
:100BE00053D068680007800F012807D068680007A5
:100BF000800F022809D16868C00306D528688003E1
:100C000043D560680028E7D03FE06068012813D032
:100C100001218904002814D0052818D02A688810DA
:100C200082432A602868884328606068002820D0B2
:100C3000FFF79CFE064618E02868012109040843D6
:100C4000F2E728680122120490432860EAE7286846
:100C50000843286029680120000401432960E4E773
:100C6000FFF784FE801B642875D828688003F7D5B9
:100C70000BE0FFF77BFE064604E0FFF777FE801BE4
:100C80006428F1D828688003F7D4207801268007EB
:100C9000002843DA68680007800F07D068680007FB
:100CA000800F022811D16868C0030ED4286880071D
:100CB00002D5E068012807D12868F8218843216916
:100CC000C9000843286029E04DE1E0680028286851
:100CD00015D030432860FFF749FE074604E0FFF7D0
:100CE00045FEC01B0228BFD828688007F7D52968B1
:100CF000F82081432069C000014329600EE04008CC
:100D000040002860FFF732FE074604E0FFF72EFEA2
:100D1000C01B0228A8D828688007F7D420780007CD
:100D200022D5E0690028686A0ED030436862FFF778
:100D30001DFE074604E0FFF719FEC01B022893D8EA
:100D4000686A8007F7D50FE0400840006862FFF747
:100D50000DFE074605E09DE0FFF708FEC01B0228D8
:100D60008FD8686A8007F7D42078042740070028C6
:100D700060DA00200190E869C00008D4E969B8068B
:100D80000143E961E969014001200091019079483E
:100D90000168C90511D40168821511430160FFF78C
:100DA000E5FD009005E0FFF7E1FD0099401A642899
:100DB00070D870480068C005F5D5A06801280AD031
:100DC000002801D0052810D0286A40084000286279
:100DD000286AB84301E0286A30432862A0680028E6
:100DE00012D0FFF7C3FD00900AE0286A384328625A
:100DF000F1E7FFF7BBFD0099411A5F48814249D8EE
:100E0000286A8007F5D50DE0FFF7B0FD009006E0F9
:100E1000FFF7ACFD0099411A574881423AD8286A39
:100E20008007F5D40198002804D0E869012109075A
:100E30008843E8612078C00635D5606901280CD068
:100E4000401D686B23D038436863686B40084000DE
:100E50006863FFF78BFD064622E0686B38436863E2
:100E6000686B30436863FFF781FD064604E0FFF7D7
:100E70007DFD801B02285BD8686B8007F7D5686B07
:100E8000F8218843A169C900084368630BE0B843AF
:100E90006863F4E74CE0FFF769FD801B022847D840
:100EA000686B8007F7D4206A00285ED0696809075C
:100EB000890F022942D001273F060228286805D061
:100EC000B8432860FFF752FD044633E0B84328607A
:100ED000FFF74CFD064604E0FFF748FD801B0228A3
:100EE00026D828688001F7D4E86AE16A0009000181
:100EF0000843E862616AA06A084369683D221204F7
:100F0000914308436860286838432860FFF72EFD46
:100F1000044604E0FFF72AFD001B022808D82868D1
:100F20008001F7D521E0FFF721FD001B022801D940
:100F30000320FEBD28688001F5D416E00128F8D012
:100F40006868E96A01221204636A02409A420AD17F
:100F50000907E26A090F914205D10F21890408406F
:100F6000A16A884201D00120FEBD0020FEBD000024
:100F7000001002400070004088130000094910B5BD
:100F8000401E884201D9012010BD074C6061032139
:100F9000081F00F01BF90020A0610720206100203D
:100FA00010BD0000FFFFFF0000E000E0FEE70000D2
:100FB0000149F02088617047000800480F2002496D
:100FC000000588617047000000080048F0B587B050
:100FD00014216846FFF72AF9384842690121C904FB
:100FE0000A43426142690A4005924269C9000A43C4
:100FF000426142690A400592426949110A434261CD
:1010000042690A400592426949000A4342614069C7
:101010002B4E0840FF210590002209023046FFF7C1
:101020009EFC0122F0213046FFF799FC00220121AD
:101030002448FFF794FC0122D70309203946C00653
:10104000FFF78DFC2048002401250090029469469A
:10105000019503943046FFF7D5FB0F2000900194D3
:10106000694602943046FFF7CDFB602000900220D5
:10107000032601A951C109206946C0060494FFF75F
:10108000C1FB0095029469460E4801950394FFF751
:10109000B9FBC0200090122001AA61C269460B482A
:1010A000FFF7B0FB092002946946C006009701953E
:1010B0000394FFF7A7FB07B0F0BD0000001002404B
:1010C0000008004800040048F0FF00000014004839
:1010D00010B5FFF773FD10BD7047704710B5FFF7EF
:1010E0004BFC10BD30B591B030216846FFF79EF83B
:1010F00000240120009001900E94000409900F94A8
:1011000000010D9402250A900C9408950B946846F2
:10111000FFF760FD07200C900E9401210D950F94B0
:101120000CA8FFF77DFCFFF7FFFC11B030BD704746
:1011300037B514460846064B6A46214600F032F998
:1011400004466946002000F0CBFC20463EBD00006E
:10115000E11A00082021020C01D010211046020AD9
:1011600001D010460839020901D01046091F820833
:1011700001D01046891E420801D0881E7047081A07
:101180007047F8B5040C8BB2264682B25E430D0C54
:101190001046370C58433604801900217941164611
:1011A0006E43370C36048019794126466E438919FF
:1011B000F8BD30B47446641E2578641CAB4200D27E
:1011C0001D46635D5B00E31830BC18478307FF22B0
:1011D000DB0E9A408907090E9940002808DB830836
:1011E00009489B001818036893430B43036070473A
:1011F0000007000F0838830804489B001818C369CB
:1012000093430B43C361704700E400E000ED00E04E
:1012100002E008C8121F08C1002AFAD170477047BF
:10122000002001E001C1121F002AFBD1704700001D
:10123000F0B51FB486B00998089A030D0021024347
:1012400014D05148514A18185043051411980128D8
:1012500010981AD0281A401C00264D4F4D49009670
:1012600001910490002812DA444211E011980124FF
:1012700049A3012801D11098C1430698119A8460AE
:101280000360C26041600BB0F0BD4042E4E7044639
:10129000210500203F4A001C51410391029012E0B9
:1012A000E00707D032463B4601990098FFF78EF8D9
:1012B0000191009032463B4610461946FFF786F8EA
:1012C00006460F466410002CEAD10498039B0028C0
:1012D000029A0999089806DAFFF778F8019B009AB4
:1012E000FFF774F805E0FFF7D9F8019B009AFFF7C4
:1012F000D5F804460E460022284BFFF767F903D8BD
:101300000020C043014607E00022254B204631461D
:10131000FEF7A8FFFFF73AF9102409E0002C0ADBDA
:101320000A220023FEF73AFF079B30321A55641E4B
:1013300002460A43F2D11122641C079B121B1C199E
:10134000119B012B03D0012308430ED10AE008436F
:1013500004D0112010900020119077E71098151AF2
:101360006D1E0BE01098824202DD00236D1C03E02D
:10137000824201DA00236D1E002BEED006981199EF
:101380008260C16030C07EE701FCFFFF104D0000AD
:10139000000014400000F03F300000000000F04367
:1013A0000000E03FFFB597B0064600251BE2252868
:1013B00076D100242746F749049400E00443761CC4
:1013C00032780120203A90400842F7D130782A281C
:1013D0000ED00222307801463039092916D80499F6
:1013E0000A235943303940181443761C0490F1E71E
:1013F000189802C804911890002904DA01204003CB
:1014000004434842049002200443761C30782E287E
:1014100014D1042004437078761C2A2809D1189826
:10142000761C80C8189009E00A214F43303FC71945
:10143000761C3078014630390929F5D930786C2886
:1014400010D006DC4C281AD068280ED06A2817D194
:1014500004E0742813D07A2812D110E0012040054E
:1014600004430CE00121090501E0032109050C43B7
:101470007178814203D1012000052418761C761C66
:10148000307866280BD013DC58287DD009DC002882
:101490007BD04528F6D04628F4D047281AD1A9E1B8
:1014A00018E0632835D0642870D0652812D1A1E1F6
:1014B00070286CD008DC6728F1D069287DD06E28B0
:1014C0000DD06F2806D1BCE073282ED0752873D0BC
:1014D000782859D01A9A199990476D1C82E16002B8
:1014E000400F022809D003280DD00428189801685D
:1014F0000DD00D60001D189074E11898EA1701686E
:101500000D604A60F6E7189801680D80F2E70D70EB
:10151000F0E718986A4601781172001D18900020B3
:10152000507202A80090012005E0189802C8189097
:1015300000200091C04361070ED5002101E0019910
:10154000491C0191B94213DA8142F8DB019A0099F2
:10155000895C0029F3D10BE0002101E00199491CCD
:1015600001918142FADB019A0099895C0029F5D149
:10157000019904981A9B471A21463846199A00F097
:1015800099FA4019019903E051E030E115E050E08B
:10159000451807E0009800990078491C00911A9AB4
:1015A000199990470198401E0190401CF2D12146A4
:1015B00038461A9B199A12E137E00A200021009060
:1015C00001916002410F022907D0189A01CA1892AE
:1015D000C2179446032908D00AE01898C01DC10814
:1015E000C90005C91891944607E000B2C217944695
:1015F000042902D140B2C1178C46002261469445AD
:1016000006DA0A460021404291418C462D2102E033
:10161000210504D52B216A461173012103E0E1075E
:1016200001D02021F7E7029156E00A200AE01020BD
:1016300008E01020009000210420044301910827B5
:1016400003E008200021019100906002410F02296F
:1016500007D0189A01CA189200229446032908D08C
:1016600008E01898C01DC108C90005C91891944622
:1016700003E080B2042900D1C0B200210291210709
:101680002AD531780D91702906D0009A1021019B3E
:101690004A401A4305D00EE040216A4611730121E9
:1016A00008E06146014306D030216A4611730D9966
:1016B000517302210291009A0821019B4A401A436A
:1016C0000AD16146014301D1610705D530216A463F
:1016D000117301217F1E02913178582904D02EA167
:1016E0000E910DA90D910DE030A1F9E76146019B26
:1016F000009AFEF753FD0E9B8C469B5C0D9A521E82
:101700000D92137061460143F0D10D9805A9081A96
:1017100020300190600703D501200004844300E0DD
:1017200001270198874201DD381A00E00020019965
:1017300000904118029809180498401A0490E00398
:1017400006D421461A9B199A049800F0B3F945195A
:10175000002706E003A81A9AC05D199990476D1CEE
:101760007F1C02988742F5DBE0030CD521461A9BCB
:10177000199A049800F09EF9451904E01A9A30204D
:10178000199990476D1C0099481E00900029F5DCBE
:101790001FE000000928010030313233343536377C
:1017A00038396162636465660000000030313233AD
:1017B000343536373839414243444546000000004D
:1017C0000D980D990078491C0D911A9A1999904716
:1017D0006D1C0199481E01900029F1DC4DE100F0DB
:1017E00059F94519761C3078002800D0DFE52846E5
:1017F0001BB0F0BD600700D406271898C01DC108B3
:10180000C90048680A680831C30FDB07189119003E
:1018100001D09CA108E0210501D59BA104E0E107CE
:1018200001D09AA100E09AA14300109130785B08A2
:1018300065280CD006DC452809D046281DD047284D
:1018400041D141E0662818D067283CD13CE0002116
:10185000112F01DB112000E0781C0191009008A9F4
:1018600011A8FFF7E5FC139905910021119A159233
:101870007F1C12980197009150E00120C00703904F
:101880000120019008A9009711A8FFF7D1FC139A35
:10189000149905920022119B009212981593059AB3
:1018A0000192002901D0104602E0791C40180190F5
:1018B000381A01D5019804E04042401E0090781C7F
:1018C0000190C01B029043E0012F00DA01270021A4
:1018D000112F01DD112000E038460191009008A988
:1018E00011A8FFF7A5FC13990591119A00211298F0
:1018F00015920091019721070CD40599B94201DB9B
:10190000019900E00191012904DD159A491E515CFD
:10191000302906D0B84201DA011D05DA0121029111
:1019200015E00199491EEDE7002805DC00994118F2
:1019300000910199091A03E0019A411C914200DDCE
:1019400001910099401A401C02900120C0070390A9
:10195000200706D402990198814202DB0020C0438F
:10196000029000206946C87707AF0121039803372A
:10197000C907884224D0022011902B20129003988E
:1019800000280CDA404203902D20129007E00A2133
:101990000398FEF7D9FB30317F1E039039701199FF
:1019A000481E11900029F2DC03980028EFD1791E1F
:1019B000129808703078202108404530BF1E3870DA
:1019C00006A8C01BC01D039010980078002800D006
:1019D0000120019941180298C017091803980918A5
:1019E0000498401A401E0490E00306D421461A9B36
:1019F000199A049800F05EF84519109800780028AC
:101A000003D01A9A199990476D1CE00324D52146FA
:101A10001A9B199A049800F04DF845191CE000989B
:101A2000002807DB00990598884203DD1598405C83
:101A3000199901E0199930201A9A904700986D1C65
:101A4000401C00900298401E0290002804D11A9A6F
:101A50002E20199990476D1C0199481E019000296C
:101A6000DDDC05E038781A9A7F1C199990476D1CC7
:101A70000399481E03900029F4DC21461A9B199A09
:101A80000498ACE62D0000002B00000020000000B0
:101A900000000000F8B5044600251E4617468804DD
:101AA00004D405E039462020B0476D1C641EF9D5EA
:101AB0002846F8BDFFB50446002581B01E46C80380
:101AC00001D5302700E02027880404D505E03846FA
:101AD0000399B0476D1C641EF9D5284605B0F0BDCA
:101AE0000A68531C0B6010707047000010B5044664
:101AF000FEF73CFF0C49E30F8A6A1B19821A5B1040
:101B00009A4210D38862C86A002805D00020C862B3
:101B1000002803D0012202E00120F8E70022F02192
:101B20000248FEF71CFF10BD04000020000800481A
:101B300070B50546FEF71AFF144C216A411AA942F6
:101B40001DD3134D20620122F0212846FEF707FF26
:101B5000616A002917D0012912D0022904D0032973
:101B600007D10022802101E0002240212846FEF713
:101B7000F6FE606A401E606201D50320606270BD9F
:101B800000222021F2E700221021EFE704000020CC
:101B90000008004870B50546FEF7E8FE164CA1693E
:101BA000411AA94221D3154DA0610122F0212846F6
:101BB000FEF7D5FEE169002906D0012907D00229E8
:101BC00014D0032908D114E00022102101E00022E2
:101BD00020212846FEF7C3FEE069401CC117890F8B
:101BE000091889088900401AE06170BD002240216F
:101BF000EFE700228021ECE7040000200008004805
:101C000001200249C00388617047000000080048B5
:101C1000F8B5184D2868FF21090488432860012081
:101C20008003A8624010A861FEF754FA012636032B
:101C3000AE61FEF74FFA104F3878012802D12869BB
:101C40000005C40FAE62FEF745FAAE61FEF742FA38
:101C50003878002802D128690005C40FAE622868D0
:101C60005521090408432860012C01D00020F8BD4B
:101C70000120F8BD000800480000002010B5411EFA
:101C800001290CD80146012000F00AF80024202187
:101C9000012000F0E7F8641CE4B2142CF7D310BD67
:101CA00010B5054A515C0818401EC1B2802001439E
:101CB000002000F0D7F810BD62210008F8B55748A1
:101CC00042690121C9040A43426142690A40009203
:101CD000426949000A4342614069514C0840009002
:101CE00020683026B0432060E068B0432030E060D8
:101CF0000A20FEF7F1F920694A4D400701D501207D
:101D000000E000202870E068B043E0602068B04345
:101D10001030206044480168444A89B28918016043
:101D200001210903816249008162490081622878AA
:101D3000012805D10426A662C820FEF7CDF9A661C8
:101D40003220FEF7E9F9287800283ED001283BD15F
:101D5000032000F0A3F80220FEF7DEF9032000F0D4
:101D60009DF81E20FEF7B8F9032000F097F81E201A
:101D7000FEF7B2F9022000F091F81E20FEF7ACF950
:101D8000022000F08BF8082000F088F81E20FEF7F3
:101D9000A3F9102000F082F8002000F07FF81E2048
:101DA000FEF79AF9002000F079F80C2000F076F8A0
:101DB0001E20FEF791F9002000F070F8062000F0D8
:101DC0006DF81E20FEF788F9F8BD022000F066F8D5
:101DD000082000F063F8022000F060F8082000F00E
:101DE0005DF82820FEF778F9002000F057F80C2065
:101DF00000F054F82820FEF76FF9002000F04EF8AC
:101E0000012000F04BF80220FEF786F9002000F0D8
:101E100045F8062000F042F8F8BD0000001002402E
:101E2000000C004800000020000800480000555544
:101E300010B5044602E000F005F8641C2078002884
:101E4000F9D110BD10B50A2806D00C2804D00146DF
:101E5000012000F007F810BD02210120FFF720FF4C
:101E600010BD000070B50C460546FFF7D1FE0028F6
:101E7000FBD1012189030848002D01D0816100E0D8
:101E80008162012149038162200900F007F82007DF
:101E9000000F00F003F870BD0008004870B5094C51
:101EA0006169094A89B21140000208436061022059
:101EB000FEF712F901252D03A5610220FEF70CF9AA
:101EC000A56270BD00080048FFF0000008B50120C1
:101ED000C824054626460090FEF756FDFFF702F996
:101EE000FFF774F8FFF7EAFE6EA000F02BF902216D
:101EF0000120FFF7D5FE6FA000F024F9FFF780FE68
:101F00000027002210216F48FEF729FDFA20FEF776
:101F100003F9012210216B48FEF721FD0022202148
:101F20006848FEF71CFDFA20FEF7F6F80122202192
:101F30006448FEF714FD002240216248FEF70FFDC1
:101F4000FA20FEF7E9F8012240215E48FEF707FD7E
:101F5000002280215B48FEF702FDFA20FEF7DCF844
:101F6000012280215748FEF7FAFC7F1CFFB2042FA4
:101F7000C7D3FFF7A3FE0220FFF780FE0221012056
:101F8000FFF78EFE50A000F0DDF86846FEF700FC7B
:101F900020460099FEF7B2FB009F0446AF4201D1F4
:101FA000B4422FD0052D04D0032D07D0042D19D015
:101FB00026E0042F04D0032F02D021E0042F1FD1EC
:101FC00019204001844201DD044619E0C82C01DAE1
:101FD000C82415E032212046FEF7CCF800290FD0A6
:101FE00032210BE0052F0BD1642C01DA642407E0C9
:101FF0006421FEF7BFF8002902D064214843E3E7DB
:102000003D462646334F012211463846FEF7A7FCCF
:102010000220FFF733FE02210120FFF741FE009866
:10202000032803DA28A000F08DF803E021462AA057
:1020300000F088F80120FFF721FE01210020FFF7C2
:102040002FFE002201213846FEF789FC009803008C
:10205000FFF7AFF80624040A10171E2422A000F090
:1020600071F8FEF7A5FF19E023A000F06BF8FEF76A
:10207000A5FF13E024A000F065F82046FFF78AFDD5
:102080000CE026A000F05EF82046FFF751FD05E0C9
:1020900027A000F057F82046FFF728FD1920FEF78B
:1020A0003BF872E75450204C65644B697420323021
:1020B000323500004C75697320262048656E7269C0
:1020C00000000000000800484475726565203A2051
:1020D0002D2D0000000400484475726565203A20EB
:1020E0002564205B6D735D004D6F64652031203A7F
:1020F000204F4646000000004D6F64652032203AB4
:10210000204F4E20000000004D6F64652033203AC0
:10211000204348454E4920473E4400004D6F6465CA
:102120002034203A204348454E4920473C44000093
:102130004D6F64652035203A20434C495F4C45443F
:10214000000000000FB400B587B009AA68460899DE
:10215000FEF7EEFF6846FFF76BFE07B008BC04B061
:1021600018470000400000000000000000010203CA
:10217000040607080900000098210008000000205C
:102180004400000010120008DC2100084400002078
:1021900004040000201200080000000001000000FC
:1021A000010000000100000001000000010000002B
:1021B000010000000000000000000000000000001E
:1021C000030000000000000000000000010000000B
:0C21D000040000000000000000127A0073
:04000005080000BD32
:00000001FF
